{
  "contractName": "Store",
  "abi": [
    {
      "anonymous": false,
      "inputs": [
        {
          "indexed": true,
          "internalType": "address",
          "name": "user",
          "type": "address"
        },
        {
          "indexed": false,
          "internalType": "bytes32",
          "name": "dataHash",
          "type": "bytes32"
        }
      ],
      "name": "DataStored",
      "type": "event"
    },
    {
      "inputs": [
        {
          "internalType": "string",
          "name": "newId",
          "type": "string"
        },
        {
          "internalType": "string",
          "name": "newName",
          "type": "string"
        },
        {
          "internalType": "uint256",
          "name": "newNumber",
          "type": "uint256"
        }
      ],
      "name": "storeData",
      "outputs": [],
      "stateMutability": "nonpayable",
      "type": "function"
    },
    {
      "inputs": [
        {
          "internalType": "address",
          "name": "user",
          "type": "address"
        }
      ],
      "name": "getData",
      "outputs": [
        {
          "internalType": "string",
          "name": "",
          "type": "string"
        },
        {
          "internalType": "string",
          "name": "",
          "type": "string"
        },
        {
          "internalType": "uint256",
          "name": "",
          "type": "uint256"
        },
        {
          "internalType": "uint256",
          "name": "",
          "type": "uint256"
        },
        {
          "internalType": "bytes32",
          "name": "",
          "type": "bytes32"
        }
      ],
      "stateMutability": "view",
      "type": "function",
      "constant": true
    }
  ],
  "bytecode": "0x608060405234801561001057600080fd5b506108e8806100206000396000f3fe608060405234801561001057600080fd5b50600436106100365760003560e01c806338266b221461003b578063524aa75a1461006f575b600080fd5b61005560048036038101906100509190610522565b61008b565b60405161006695949392919061061a565b60405180910390f35b6100896004803603810190610084919061070c565b6102b7565b005b6060806000806000806000808873ffffffffffffffffffffffffffffffffffffffff1673ffffffffffffffffffffffffffffffffffffffff168152602001908152602001600020905060006101758260010180546100e8906107d0565b80601f0160208091040260200160405190810160405280929190818152602001828054610114906107d0565b80156101615780601f1061013657610100808354040283529160200191610161565b820191906000526020600020905b81548152906001019060200180831161014457829003601f168201915b5050505050836002015484600301546103e1565b905081600001826001018360020154846003015484848054610196906107d0565b80601f01602080910402602001604051908101604052809291908181526020018280546101c2906107d0565b801561020f5780601f106101e45761010080835404028352916020019161020f565b820191906000526020600020905b8154815290600101906020018083116101f257829003601f168201915b50505050509450838054610222906107d0565b80601f016020809104026020016040519081016040528092919081815260200182805461024e906107d0565b801561029b5780601f106102705761010080835404028352916020019161029b565b820191906000526020600020905b81548152906001019060200180831161027e57829003601f168201915b5050505050935096509650965096509650505091939590929450565b60008060003373ffffffffffffffffffffffffffffffffffffffff1673ffffffffffffffffffffffffffffffffffffffff1681526020019081526020016000209050858582600001919061030c929190610417565b508383826001019190610320929190610417565b50818160020181905550428160030181905550600061038885858080601f016020809104026020016040519081016040528093929190818152602001838380828437600081840152601f19601f820116905080830192505050505050508484600301546103e1565b90503373ffffffffffffffffffffffffffffffffffffffff167fa7ebd12e985dcdefed58f75386b8b8f6b785a733e5275a0ae2c4152095f58c05826040516103d09190610801565b60405180910390a250505050505050565b60008383836040516020016103f893929190610879565b6040516020818303038152906040528051906020012090509392505050565b828054610423906107d0565b90600052602060002090601f016020900481019282610445576000855561048c565b82601f1061045e57803560ff191683800117855561048c565b8280016001018555821561048c579182015b8281111561048b578235825591602001919060010190610470565b5b509050610499919061049d565b5090565b5b808211156104b657600081600090555060010161049e565b5090565b600080fd5b600080fd5b600073ffffffffffffffffffffffffffffffffffffffff82169050919050565b60006104ef826104c4565b9050919050565b6104ff816104e4565b811461050a57600080fd5b50565b60008135905061051c816104f6565b92915050565b600060208284031215610538576105376104ba565b5b60006105468482850161050d565b91505092915050565b600081519050919050565b600082825260208201905092915050565b60005b8381101561058957808201518184015260208101905061056e565b83811115610598576000848401525b50505050565b6000601f19601f8301169050919050565b60006105ba8261054f565b6105c4818561055a565b93506105d481856020860161056b565b6105dd8161059e565b840191505092915050565b6000819050919050565b6105fb816105e8565b82525050565b6000819050919050565b61061481610601565b82525050565b600060a082019050818103600083015261063481886105af565b9050818103602083015261064881876105af565b905061065760408301866105f2565b61066460608301856105f2565b610671608083018461060b565b9695505050505050565b600080fd5b600080fd5b600080fd5b60008083601f8401126106a05761069f61067b565b5b8235905067ffffffffffffffff8111156106bd576106bc610680565b5b6020830191508360018202830111156106d9576106d8610685565b5b9250929050565b6106e9816105e8565b81146106f457600080fd5b50565b600081359050610706816106e0565b92915050565b600080600080600060608688031215610728576107276104ba565b5b600086013567ffffffffffffffff811115610746576107456104bf565b5b6107528882890161068a565b9550955050602086013567ffffffffffffffff811115610775576107746104bf565b5b6107818882890161068a565b93509350506040610794888289016106f7565b9150509295509295909350565b7f4e487b7100000000000000000000000000000000000000000000000000000000600052602260045260246000fd5b600060028204905060018216806107e857607f821691505b6020821081036107fb576107fa6107a1565b5b50919050565b6000602082019050610816600083018461060b565b92915050565b600081905092915050565b60006108328261054f565b61083c818561081c565b935061084c81856020860161056b565b80840191505092915050565b6000819050919050565b61087361086e826105e8565b610858565b82525050565b60006108858286610827565b91506108918285610862565b6020820191506108a18284610862565b60208201915081905094935050505056fea26469706673582212209bc158f67920eaf8e9bbc88892dea1e3e3ca243022436d55d97ece492d2741de64736f6c634300080d0033",
  "immutableReferences": {},
  "source": "// SPDX-License-Identifier: MIT\r\npragma solidity >=0.4.25 <0.9.0;\r\n\r\ncontract Store {\r\n    struct Data {\r\n        string id; // ID assigned by admin\r\n        string name;\r\n        uint256 number;\r\n        uint256 timestamp;\r\n    }\r\n\r\n    mapping(address => Data) private userToData;\r\n\r\n    event DataStored(address indexed user, bytes32 dataHash);\r\n\r\n    function storeData(string calldata newId, string calldata newName, uint256 newNumber) external {\r\n        Data storage userData = userToData[msg.sender];\r\n        userData.id = newId;\r\n        userData.name = newName;\r\n        userData.number = newNumber;\r\n        userData.timestamp = block.timestamp;\r\n\r\n        bytes32 dataHash = calculateDataHash(newName, newNumber, userData.timestamp);\r\n        emit DataStored(msg.sender, dataHash);\r\n    }\r\n\r\n    function calculateDataHash(string memory newName, uint256 newNumber, uint256 timestamp) internal pure returns (bytes32) {\r\n        return keccak256(abi.encodePacked(newName, newNumber, timestamp));\r\n    }\r\n\r\n    function getData(address user) external view returns (string memory, string memory, uint256, uint256, bytes32) {\r\n        Data storage userData = userToData[user];\r\n        bytes32 dataHash = calculateDataHash(userData.name, userData.number, userData.timestamp);\r\n        return (userData.id, userData.name, userData.number, userData.timestamp, dataHash);\r\n    }\r\n}\r\n",
  "sourcePath": "C:\\xampp\\htdocs\\BLOCKCHAIN_PERLOTA\\contracts\\Store.sol",
  "compiler": {
    "name": "solc",
    "version": "0.8.13+commit.abaa5c0e.Emscripten.clang"
  },
  "schemaVersion": "3.4.15",
  "updatedAt": "2023-08-21T06:43:35.797Z",
  "networkType": "ethereum",
  "devdoc": {
    "kind": "dev",
    "methods": {},
    "version": 1
  },
  "userdoc": {
    "kind": "user",
    "methods": {},
    "version": 1
  }
}